:020000040800F2
:100000000004002047010008830600086705000877
:1000100081060008ED010008311F00080000000003
:10002000000000000000000000000000591C000853
:10003000BD0400080000000029080008051E000893
:1000400067010008670100086701000867010008F0
:1000500067010008670100086701000867010008E0
:1000600067010008670100086701000867010008D0
:1000700067010008670100086701000867010008C0
:1000800067010008670100086701000867010008B0
:1000900067010008670100086701000867010008A0
:1000A0006701000867010008670100086701000890
:1000B0006701000867010008670100086701000880
:1000C0006701000867010008670100086701000870
:1000D0006701000867010008670100086701000860
:1000E0006701000867010008670100086701000850
:1000F0006701000867010008670100086701000840
:1001000067010008D90900086701000867010008B5
:10011000670100086701000867010008670100081F
:10012000670100086701000867010008670100080F
:10013000DFF80CD000F048F800480047892D00088F
:1001400058090020704708488047084981F308880B
:1001500007480047FEE7FEE7FEE7FEE7FEE7FEE7AB
:10016000FEE7FEE7FEE7FEE745010008580900202C
:1001700031010008D2B201E000F8012B491EFBD288
:1001800070470022F6E710B50446084611460246BD
:100190002046FFF7EFFF204610BD30B50B46014665
:1001A00000202022012409E021FA02F59D4205D316
:1001B00003FA02F5491B04FA02F52844151EA2F1C0
:1001C0000102F1DC30BD0000064C074D06E0E0689E
:1001D00040F0010394E8070098471034AC42F6D38E
:1001E000FFF7AAFFE830000808310008FEE700002A
:1001F00070B5374905462A24486B10F0450FFBD0EF
:10020000410702D50324042003E0C00704D00124E1
:10021000204600F079FB59E000F0B6FBA8422BD154
:1002200040F2FF5000F070FB002000F0CFFB2949A6
:1002300008424BD0002801DA1C2070BD410001D5D6
:10024000092070BD810001D50A2070BDC10001D513
:100250000B2070BD010101D50C2070BD410101D5FD
:100260000D2070BDC10101D50E2070BD010201D568
:100270000F2070BD410201D5102070BD810201D553
:10028000112070BDC10201D5122070BD010301D53E
:10029000132070BD410301D5142070BD810301D529
:1002A000152070BDC10301D5162070BD010401D514
:1002B000172070BD410401D5182070BD810401D5FF
:1002C000192070BD000701D51A2070BD204670BDF1
:1002D0000080014008E0FFFD10B50B492A24486B5F
:1002E00010F0450FFBD0410702D50324042003E0A2
:1002F000C00705D00124204600F006FB204610BDB3
:1003000040F2FF50F8E700000080014070B50C4655
:10031000194906462A25486B10F0450FFBD04107C6
:1003200002D50324042003E0C00705D001242046A1
:1003300000F0EAFA204670BD00F026FBB04213D16F
:1003400040F2FF5000F0E0FA002000F03FFB10F414
:10035000604F03D14FEA104020800BE0810401D5AB
:10036000132070BD410401D5102070BD000401D5DB
:100370000F2070BD284670BD008001400349C200B7
:1003800002D5C1F80404704748607047000002407D
:100390000029016802D041F0010101E021F00101D2
:1003A00001607047024600200549D30002D5D1F80C
:1003B000001400E00968114200D0012070470000DD
:1003C0000000024070B5026847F6F0739A430D6A68
:1003D0008B680C692B43D1E9056534432343CC6911
:1003E0002B432343D1E909542B4323431343036095
:1003F000CA6842600A6882604968C16070BD0000D6
:1004000070B506468CB00D461148FFF7B7FF114C8A
:1004100000212046FFF7BCFF0F48CDE90106002070
:10042000A908CDE903018021CDE9050189000791E3
:100430008900CDE908108900CDE90A1001A92046FC
:10044000FFF7C0FF01212046FFF7A2FF0CB070BDEF
:1004500000F00010440402408080014070B5064660
:100460008CB00C461248FFF789FF124D0021284638
:10047000FFF78EFF1048CDE9010610200390A00879
:10048000049000208021CDE90501890007918900B1
:10049000CDE908108900CDE90A1001A92846FFF727
:1004A00091FF01212846FFF773FF0CB070BD0000DB
:1004B00000F00010440402408080014070470000BA
:1004C000F0B5CB780022DC0603F00F0301D58C7861
:1004D00023430C884FF00F0C14F0FF0F4FF0010E68
:1004E0001AD006680D880EFA02F42540A5420FD1F5
:1004F00095000CFA05F726EA070703FA05F6CD780A
:100500003E43282D01D1446102E0482D00D1046111
:10051000521C082AE6D306600A88FF2A1ED94668BC
:100520005FF0000202F108050EFA05F40D8825407F
:10053000A5420FD195000CFA05F726EA070703FA42
:1005400005F6CD783E43282D00D14461CD78482D65
:1005500000D10461521C082AE4D34660F0BD416119
:10056000704701617047FEE770B5044640482A2590
:10057000806801043F4801600D2141604021816095
:100580000021C1604FF48061016100F04FFA3A49E7
:10059000486B10F0450FFBD0410702D5032404201F
:1005A00003E0C00705D00124204600F0ADF9204645
:1005B00070BD00F0E9F90D282ED140F2FF5000F097
:1005C000A3F9002000F002FAC0F3432121702B4967
:1005D00008424BD0002801DA1C2070BD410001D533
:1005E000092070BD810001D50A2070BDC10001D570
:1005F0000B2070BD010101D50C2070BD410101D55A
:100600000D2070BDC10101D50E2070BD010201D5C4
:100610000F2070BD410201D5102070BD810201D5AF
:10062000112070BDC10201D5122070BD010301D59A
:10063000132070BD410301D5142070BD810301D585
:10064000152070BDC10301D5162070BD010401D570
:10065000172070BD410401D5182070BD810401D55B
:10066000192070BD000701D51A2070BD284670BD45
:1006700000000020880000200080014008E0FFFD0D
:10068000FEE7704708B54FF4C06000F03DF8312038
:100690008DF8000000208DF801008DF80200012087
:1006A0008DF80300684600F001F808BDF0B50F238F
:1006B000C47801784FF0E0220127E4B1D2F80C4D64
:1006C000867804F4E064C4F5E064240AC4F1040507
:1006D000E34044781E40AC4026433301114481F886
:1006E00000340078410900F01F0002EB81018740CF
:1006F000C1F80071F0BD01F01F008740480902EB0E
:100700008000C0F88071F0BD0249084302490860CA
:10071000704700000000FA050CED00E02DE9F04103
:100720009AB034216846FFF72CFD26A001F002FCA8
:10073000002001F0FDFF2F49002002F025F8694656
:100740000DA802F0D5F82C4F4FF40075002838D1D1
:1007500031E000BF9DF8580080062CD59DF8590067
:1007600000282ED00DF159010C4624A001F0E2FB27
:1007700001222146284802F017F80120274E0024C4
:10078000786000202A463454401C9042FBD31A4B18
:1007900022491B1D204802F0D2F880461F4920A0A4
:1007A00001F0C8FBB8F1000F02D178680028E8D149
:1007B000194801F0DFFF14A90DA802F06BF9002819
:1007C000C8D0FEE70D0A202066696C652073797336
:1007D00074656D2854696E692D4661744661302ECA
:1007E00030374329207374617274696E6721200D5C
:1007F0000A00000004010020280000200D0A2066E5
:10080000696C65206E616D652069733A0D0A202060
:100810002025730D0A000000340300205805002035
:1008200025730D0A0000000070470000044A0029EB
:10083000516901D0014300E08143516170470000DC
:1008400000100240044A0029916901D0014300E0F0
:10085000814391617047000000100240044A002962
:10086000D16801D0014300E08143D16070470000AE
:100870000010024010B5204A5168204B11F00C01C5
:1008800003D0042901D0082901D0036011E0516888
:10089000022301F4701103EB9141536813F4803F7C
:1008A00002D053689B0301D5154B00E0134B59430D
:1008B00001605168134B01F0F00109095C5C0168AB
:1008C000E1404160546804F4E064240A1C5D21FAAC
:1008D00004F48460546804F46054E40A1B5DD94055
:1008E000C1605268074B02F44042920B1B1F9A5C96
:1008F000B1FBF2F1016110BD0010024000127A005C
:1009000000093D0034000020014988637047000061
:100910000080014001498863704700000080014069
:100920000149086070470000A0003042014908609A
:10093000704700008C05304230B5094902684A62B0
:1009400042688A62CA6AD0E90354836840692B43CB
:10095000044322F0F70223431343CB6230BD00006F
:100960000080014006480021016041608160C16053
:1009700041628162C162034A8263C16370470000C1
:1009800000800140FF07C00001480069C0B2704705
:100990000080014003490246496B0020114200D00B
:1009A000012070470080014003490246496B002046
:1009B000114200D0012070470080014002480068C9
:1009C00000F0030070470000008001400149084426
:1009D000406970470080014000F048BB044A00298C
:1009E000D16B01D0014300E08143D1637047000027
:1009F0000080014070B5094B596847F6FF6291438A
:100A0000D0E9035602782A43D0E901543443224303
:100A100040692A4302430A435A6070BD0080014086
:100A200001480068704700008080014030B50849E7
:100A300002688A60CA68D0E90254436800692B439F
:100A400004436FF30A0223431343CB6030BD00001D
:100A50000080014004490A6822F003020A600A6823
:100A600002430A60704700000080014001490860AD
:100A700070470000808001402DE9F0479749DFF87A
:100A800060A24C6880F84E408968A0F84C10DAF8F3
:100A900000104FF02A0C0A0E95090570C2F3830569
:100AA000457002F0030282700A0CC2700A0A0271D9
:100AB0004171DAF80420110E0901C180C388C2F324
:100AC000074101F00F0543EA1111C1800572C2F31D
:100AD0000721CB094372C1F380138372C1F3401322
:100AE000C372C1F3001303734FF0000880F80D8048
:100AF00053469B684FF00109C3F30746C3F307272A
:100B00004FEA13650CB1012C2AD18907090D016147
:100B10000169D2B241EA820101610269C5F3C204EE
:100B200042EA95120261047505F0070141757109E9
:100B30008175C6F38201C175B107490F0176027E46
:100B4000394642EAD71202760269057E047A521CBF
:100B5000AD1CAA4009FA04F56A43C0E9112512E068
:100B6000022C10D19106890A0161016941EA05212F
:100B7000016102693946324302610269521CD204A2
:100B8000426422028264C1F3801200F118004270B4
:100B90004FEA81614FEA51618170D9B2837843EAAB
:100BA000D113837001F07F01C170DAF80C204FEA95
:100BB00012614FEAD1130371C1F341134371C1F3C1
:100BC000820383714FEA81714FEA1171C171C37958
:100BD000C2F3074143EA9113C371C1F34013037297
:100BE00080F8098001F001018172C2F307214FEA08
:100BF000D113C372C1F380130373C1F34013437362
:100C0000C1F300138373C1F38103C37301F00301C4
:100C10000174C2F3460141744B4680F81290304A89
:100C200002F1100211684FEA11640475C1F3074420
:100C30004FEA0424C482C58AC1F3072445EA0405A7
:100C4000C5824FEA01618161516885694FEA11648B
:100C500045EA044484618569C1F3074445EA0424F4
:100C600084618569C1F3072445EA0405856101773C
:100C700091684FEA11644477C1F307444FEA046472
:100C80000462056AC1F3072445EA04440462046A65
:100C9000C9B244EA01210162D168046A44EA1164DC
:100CA000046290F82440C1F3074244EA121480F829
:100CB00024404FEA02724FEA1252C284C48CC1F33C
:100CC000072244EA0204C484C1F3460180F82810D4
:100CD00080F829306046BDE8F08700000000002061
:100CE0005000002038B501210820FFF7ABFD20207F
:100CF000ADF8000010208DF80300224D03248DF87C
:100D0000024069462846FFF7DBFB20212846FFF713
:100D100026FC01213020FFF795FD4FF4F850ADF887
:100D200000008DF8024018208DF80300694616482F
:100D3000FFF7C6FB0420ADF8000069461348FFF733
:100D4000BFFB01218802FFF771FD01210220FFF79F
:100D50006DFDFFF707FE00F09FF82A2810D100F084
:100D600019F804462A280AD10948012101700021F6
:100D700041608160C16001614161FFF73BFE204637
:100D800038BD0000000C014000100140001401407B
:100D9000700000202DE9F84F01202A240090FFF771
:100DA0000DFE10B92520BDE8F88FDFF8E490D9F8E2
:100DB0000400042869D0374E00250220C6E90050FF
:100DC0004FF0C00AC6E902A54FF480683046C6F865
:100DD0001080FFF72BFEFFF77FFA04462A2854D134
:100DE0000020FFF7F3FDA6F1280738600420FFF785
:100DF000EDFD78600820FFF7E9FDB8600C20FFF7F3
:100E0000E5FDF860D9F804004F4628B1012803D069
:100E1000062801D0022810D10320C6E90050C6E9F7
:100E200003584020B0601B48FFF700FE69460320CE
:100E3000FFF76CFA04462A2827D17868042824D0C2
:100E4000BDF80000B86000043060C6E902A50920C2
:100E5000C6F8108070600F48FFF7E8FDFFF73CFA16
:100E600004462A2811D10020FFF7B0FD094D383D76
:100E700028600420FFF7AAFD68600820FFF7A6FDA0
:100E8000A8600C20FFF7A2FDE86020468BE7000079
:100E900000000020880000202DE9F05F00276F4847
:100EA000B221017047608760C76007613C463E46DB
:100EB000B846BB463D464761FFF79CFD0320FFF760
:100EC000C9FD0120FFF72CFD64484FF48061183004
:100ED000056045608560C0E90351FFF7A7FD42F258
:100EE000107A4FF02A09554601E06D1E05D080208A
:100EF000FFF750FD0028F8D00DB9032004E040F2C0
:100F0000FF50FFF701FD48462A287DD1DFF84C91BC
:100F10004FF4D57109F11809C9F800100821C9F872
:100F200004104021C9E9021B09014846C9F8101004
:100F3000FFF77CFD4A4A2A25516B5046924603E052
:100F4000DAF83410A0F1010011F0450F02D10028A9
:100F5000F6D102E008B1480702D50325042003E0DA
:100F6000480603D52A254020FFF7CEFC2A2D05D1BF
:100F70003C4901204FF0804848600FE03722C9E922
:100F800000B24022C9E9022B344811011830C9F8D7
:100F90001010FFF74BFD3720FFF72AF92F483722B3
:100FA0001830C0E900B24FF48069C0E903B94022AB
:100FB0008260FFF73BFD3720FFF71AF905462A2824
:100FC00049D136E0254D37201835C5E900B0C5E9CF
:100FD00003B940275E462846AF60FFF727FD37205C
:100FE000FFF706F92A282ED11F4948EA0100286098
:100FF000C5E903692920C5E901072846FFF716FD61
:101000002A255146486B00E01DE010F0450FF9D04D
:10101000400702D50325042001E040F2FF50FFF70E
:1010200073FC2A2D17D10020FFF7D0FCC60F07460E
:10103000641C1EB94FF6FF708442C3D34FF6FF7095
:10104000844202D31B20BDE8F09F17F0804F02D0EE
:101050000448022141602846F5E7000070000020A6
:101060000080014000000020000010802DE9F041C8
:10107000644D0024E868012842D1C003FFF794FCC6
:1010800060B100BFFFF7CCFC696A41F82400641C22
:10109000082CF7D3686A203068622EE04FF4804055
:1010A000FFF782FC60B3E9692869411A202919D247
:1010B000E969411A8907E969A0EB01004FEA900646
:1010C00000D10CE0761C0AE0286A0068FFF7CEFC2D
:1010D000286A641C001D2862E869001DE861B442AA
:1010E000F2D30DE0286A50F82400FFF7BFFC641C1F
:1010F000082CF7D3286A20302862E8692030E8619C
:101100004FF480763046FFF74FFC00244CF23A381B
:1011100048B3E86890B1770308E000BFFFF780FCB0
:10112000696A01C16962E869001DE8613846FFF734
:1011300031FC18B1E86929698842EFD36869012850
:1011400002D100F0A5FA00E02A2028703046FFF70F
:10115000E1FB00214046FFF741FC0120A861EC6162
:101160002878BDE8F0810220FFF71EFC50B1022074
:10117000FFF7D0FB00214046FFF730FCEC61022076
:101180002870EEE70820FFF70FFC50B10820FFF7AA
:10119000C1FB00214046FFF721FCEC6104202870D0
:1011A000DFE72020FFF700FC50B12020FFF7B2FB63
:1011B00000214046FFF712FCEC6106202870D0E7C2
:1011C0001020FFF7F1FB50B11020FFF7A3FB002127
:1011D0004046FFF703FCEC6105202870C1E74FF49F
:1011E00000763046FFF7E0FB50B13046FFF792FB48
:1011F00000214046FFF7F2FBEC6107202870B0E7C2
:101200002A20AEE7000000202DE9F84F06460C002A
:10121000154679D074482A21017000278761DFF8CC
:10122000D09107617149C9E90017C9F80870C9F878
:101230000C70C9F810704846C9F81470FFF77CFBB1
:101240000020FFF773FB0020FFF7C0FB800102D5F1
:101250000E20BDE8F88F64484068022801D10502DD
:10126000760A681EB0F5006F4ED205424CD1284672
:1012700001F07AF8DFF878810090A8F114084FF0B7
:10128000400BC8E902B74FF4806A1021C8F810A0DB
:10129000C8E900514046FFF7C9FB1020FEF7A8FF40
:1012A0002A28D6D15149C9E90015009950480901A9
:1012B000C9F808100221C9E903170121C9F814105F
:1012C000FFF73AFBDFF820911121C9E90457C9F86B
:1012D0002440C8E902B7C8F810A0C8E90061404638
:1012E000FFF7A4FB1120FEF783FF06462A2879D1D9
:1012F000D9F80C004F46022850D14FF400493D4F19
:1013000040F22A6810E0FFE72620A2E74846FFF7F0
:1013100041FB48B15FF00005FFF782FB44F8250070
:101320006D1C082DF8D32034786B10EA080FEDD02F
:101330000820FFF72FFB20B10820FFF7E5FA042073
:1013400087E70220FFF726FB20B10220FFF7DCFA37
:1013500002207EE72020FFF71DFB20B12020FFF7B1
:10136000D3FA062075E74FF400752846FFF712FB05
:1013700040B12846FFF7C8FA07206AE7FFF750FB9D
:1013800001C401E04FF400152846FFF703FB0028D5
:10139000F4D140F2FF50FFF7B7FA23E001280ED155
:1013A000012148F22A30FFF719FBB86910B93878E3
:1013B0002A28FAD038782A2814D0387849E788B90A
:1013C000012140F22A30FFF709FB0120FFF7AEFAB6
:1013D00029462046FFF714F8074C2046FEF7E2FFA7
:1013E0000028FAD0304634E700000020FFFF0F004D
:1013F0009C00002000800140002000102DE9F84FE3
:1014000080460C0017461E464CD0DFF828A22A2141
:101410008AF800100025CAF8185088488649CAF88A
:101420001050C0E900158560C56005614561FFF792
:1014300083FA0020FFF77AFA0020FFF7C7FA80014D
:1014400002D50E20BDE8F88FDAF80400022802D198
:1014500007024FEA5828781EB0F5006F22D20742E3
:1014600020D1384600F080FFDFF8D0B10090ABF11A
:10147000140B1021CBE900714021CBE902150901C1
:10148000A9465846CBF81010FFF7D0FA1020FEF707
:10149000AFFE05462A2874D1012E72D97E43B6F1DB
:1014A000007F01D32620CDE70121CAE9046163480A
:1014B000614ACAF82440C0E90026009A5746120142
:1014C00082600222C0E903294D464161FFF734FAE8
:1014D0004146CBF800101221CBF804104021CBE993
:1014E0000215D84658464FF4806BC0F810B05348E8
:1014F0001438FFF79BFA1220FEF77AFE05462A28D9
:10150000C9D1F96840F22A30022968D182460DE03B
:101510004FF40040FFF73EFA40B10026FFF780FA93
:1015200044F82600761C082EF8D320344448406B3B
:1015300010EA0A0FECD00820FFF72CFA20B108209F
:10154000FFF7E2F904207DE70220FFF723FA20B13C
:101550000220FFF7D9F9022074E72020FFF71AFADA
:1015600020B12020FFF7D0F906206BE74FF400767A
:101570003046FFF70FFA48B13046FFF7C5F90720AC
:1015800060E72BE0FFF74CFA01C401E04FF40016CE
:101590003046FFF7FFF90028F4D14FF48070FFF7D1
:1015A000F9F9B8B1786818B1022801D0012811D131
:1015B0000C21C8E90091C8E9039B20484021143858
:1015C000C8F80810FFF732FA0C20FEF711FE0546A6
:1015D0002A282CD140F2FF50FFF796F927E0012985
:1015E0000DD148F22A30FFF7F9F9B86910B9387807
:1015F0002A28FAD038782A2819D0387822E7B1B9C1
:101600000121FFF7EBF90120FFF790F93146204661
:10161000FEF7F6FE0B4C2046FEF7C4FE0028FAD07B
:10162000B8690028E6D138782A28F9D0E2E72846B8
:1016300008E7000000000020FFFF0F009C000020D2
:10164000008001400020001010B509490860072003
:101650004860402088600020C8604FF480600861C6
:101660000846FFF7E3F9BDE810400720FEF7C0BDCC
:10167000880000202A2118B1012801D0022802D1B7
:10168000024AD06000E02621084670470000002092
:1016900010B5084800210C22C0E900124022C0E920
:1016A000022111010161FFF7C1F9BDE810400C20D2
:1016B000FEF79EBD880000202DE9FC5F4FF000067C
:1016C00080460C0017463546009664D0DFF88892B5
:1016D0002A2189F80010C9F81860A1489F49C9F863
:1016E0001060C0E900168660C66006614661FFF7BB
:1016F00023F90020FFF71AF90020FFF767F98001AE
:1017000002D50E20BDE8FC9FD9F80400022802D1C2
:1017100007024FEA5828781EB0F5006F3BD2074207
:1017200039D1384600F020FEDFF834A20190AAF14A
:10173000140A4FF0400BCAE902B61021CAE9007141
:1017400089015046CAF81010FFF770F91020FEF713
:101750004FFD2A28D6D18048D14680680104CAF8B6
:1017600000100D21CAF804105046C0F808B04FF41C
:101770008061C0E903617A48DA46B3461438FFF75E
:1017800055F90D20FEF734FD2A28BBD10020FFF7C4
:101790001DF9724E1CE02620B4E76F48761E806863
:1017A0000104C9F800100D21C9E902ABC9F8041001
:1017B0006B484FF480611438C9F81010FFF736F900
:1017C0000D20FEF715FD2A289CD10020FFF7FEF81A
:1017D000C00502D4002EE0D100E00EB9292091E727
:1017E0001821C9E902ABC9E900815D484FF4806165
:1017F0001438C9F81010FFF719F91820FEF7F8FC93
:101800002A28C9D1DFF850815548C8E9047B534ADA
:10181000C8F82040C0E90027019A01211201C0E95F
:10182000022BC0E904B14646FFF786F8F0680228AB
:1018300054D1DFF8309140F21A6A24E04FF480402E
:10184000FFF7A8F8F8B1D8F81000401B202810D2F4
:1018500081074FEA900700D100E07F1C002605E0D9
:101860002068FFF703F9761C241D2D1DBE42F7D317
:1018700009E0002654F82600FFF7F8F8761C082E39
:10188000F8D320342035D9F8340010EA0A0FD5D027
:101890000820FFF77FF820B10820FFF735F8042073
:1018A00030E70220FFF776F820B10220FFF72CF88E
:1018B000022027E71020FFF76DF820B11020FFF776
:1018C00023F805201EE74FF400742046FFF762F866
:1018D00080B32046FFF718F8072013E74546012894
:1018E0000ED1012144F21A30FFF778F8A86910B937
:1018F00028782A28FAD028782A281CD0287801E7C6
:10190000C0B9012140F21A30FFF768F83946204685
:10191000FEF7A4FD0120FFF709F8134C2046FEF75F
:1019200041FD0028FAD0A8690028E4D128782A28A7
:10193000F9D0E0E7FFE740F2FF50FEF7E5FF684629
:10194000FEF712FE2A28ABD19DF800100729F6D029
:101950000629F4D0D6E6000000000020FFFF0F00AB
:101960009C00002000800140002000102DE9FC5F59
:1019700007464FF000000C001646994605460090B9
:101980005ED0DFF8C0A22A228AF800208346CAF877
:101990001800AE49AC4ACAF81000C1E900208860BE
:1019A000C860086148610846FEF7C6FF0020FEF7E0
:1019B000BDFF0020FFF70AF8800102D50E20BDE828
:1019C000FC9FDAF80400022801D106027F0A701E8B
:1019D000B0F5006F34D2064232D1304600F0C4FC7C
:1019E00001909A4810211438C0E900614021C0E9F3
:1019F000021B09010161FFF719F81020FEF7F8FB3F
:101A00002A28DCD18F484FF0400A806801048F48B3
:101A1000143801600D21C0E902AB41604FF48061D0
:101A20000161FFF703F80D20FEF7E2FB2A28C6D17B
:101A3000B9F1010F72D909FB06F8B8F1007F01D3A3
:101A40002620BCE77F4E706818B1012801D002281B
:101A500023D1B06801047D48143801603721C0E902
:101A600002AB41604FF480610161FEF7DFFF372078
:101A7000FEF7BEFB2A28A2D1744817211438C0E90A
:101A800002ABC0E900914FF480610161FEF7CEFF27
:101A90001720FEF7ADFB2A2891D16C481921143884
:101AA000C0E900714FF4806AC0E903BA4021816047
:101AB000FEF7BCFF1920FEF79BFB2A28C1D10122AB
:101AC000C6E90482614860493462C0E9001801999E
:101AD000B1460901C0E9021BC0E904B2FEF72CFFC0
:101AE000F16840F21A30022973D1804627E000BF26
:101AF0004FF48040FEF74EFF08B3D9F81000401BAA
:101B000020280CD35FF0000654F82600FEF7AEFF45
:101B1000761C082EF8D32034203510E057E08107DA
:101B20004FEA900700D100E07F1C002605E0206806
:101B3000FEF79CFF761C241D2D1DBE42F7D34448A2
:101B4000406B10EA080FD3D00820FEF723FF20B126
:101B50000820FEF7D9FE042031E70220FEF71AFF25
:101B600020B10220FEF7D0FE022028E71020FEF769
:101B700011FF20B11020FEF7C7FE05201FE74FF42C
:101B800000742046FEF706FF20B12046FEF7BCFE9B
:101B9000072014E74FF48070FEF7FCFE002841D0C8
:101BA000D9F8040018B1012801D002283AD12748F9
:101BB0000C221438C0E900B2C0E903BA40228260A6
:101BC000FEF734FF0C20FEF713FB2A28C4D129E0CE
:101BD000FFE74D4601290DD144F21A30FEF7FEFE13
:101BE000A86910B928782A28FAD028782A2819D084
:101BF0002878E4E6B1B90121FEF7F0FE0120FEF7F6
:101C000095FE41462046FEF729FC124C2046FEF781
:101C1000C9FB0028FAD0A8690028E6D128782A282C
:101C2000F9D0E2E740F2FF50FEF76EFE6846FEF79D
:101C30009BFC2A2890D19DF800100729F6D0062990
:101C4000F4D0BCE600000020FFFF0F009C00002045
:101C500000800140002000107047000070B586B081
:101C6000012144F20400FEF7EDFD00214FF4804015
:101C7000FEF7F4FD4FF40070ADF8140003208DF86A
:101C800016001820344C8DF8170005A92046FEF7E1
:101C900017FC2015ADF8140004208DF8170005A9D5
:101CA0002046FEF70DFC4FF4E0402C4DADF814003B
:101CB00005A92846FEF704FC6014ADF8140005A938
:101CC0002748FEF7FDFB4020264EADF8140005A97D
:101CD0003046FEF7F5FBE414ADF8144028208DF8EB
:101CE000170005A92048FEF7EBFBADF8144005A945
:101CF0002846FEF7E5FB8020ADF8140005A9304624
:101D0000FEF7DEFB80213046FEF72BFC4FF4E1307E
:101D100001900020ADF80800ADF80A00ADF80C0005
:101D2000ADF810000C20114CADF80E0001A92046B2
:101D300000F0B4F8012240F22771204600F095F837
:101D4000012240F22551204600F08FF80121204663
:101D500000F07AF806B070BD00080140001801409C
:101D60000014014000100140000C01400038014007
:101D7000224900200A6842F480320A604FF4A063CE
:101D80000A68401C12F4003F01D19842F8D108685B
:101D9000800331D51A48026842F0100202600268DE
:101DA00022F003020260026842F002020260486808
:101DB000486048684860486840F480604860486807
:101DC00020F47C104860486840F4E81048600868D7
:101DD00040F08070086008688001FCD5486820F0F9
:101DE00003004860486840F0020048604868C0F35B
:101DF00081000228FAD17047FEE70000001002407F
:101E000000200240704700000C48016841F00101C9
:101E1000016041680A4A114041600168094A114065
:101E20000160016821F480210160416821F4FE0114
:101E3000416000218160FFF79BBF0000001002405D
:101E40000000FFF8FFFFF6FE0029818902D041F46F
:101E5000005101E021F4005181817047024612884F
:101E600000200A4200D00120704710B5C1F3421390
:101E700001F01F040121A140012B01D10C3004E02D
:101E8000022B01D1103000E01430002A026801D08A
:101E90000A4300E08A43026010BD000030B50446EA
:101EA000008A85B00D464CF6FF710840E988014371
:101EB0002182A0894EF6F3110840A9882A8911438E
:101EC0006A8902431143A181A08A4FF6FF4108406D
:101ED000A9890143A1826846FEF7CCFC11488442DF
:101EE00001D1039800E00298642200EBC00101EBED
:101EF000001029686FF018038900B0FBF1F0B0FB07
:101F0000F2F109010D095D43322300EB850003EB7B
:101F10000010B0FBF2F000F00F000843208105B084
:101F200030BD000000380140C1F3080181807047D6
:101F3000FEE700000FB410B503A9044B044A029851
:101F400000F018F810BC5DF814FB00002D2C000800
:101F50004C00002002E008C8121F08C1002AFAD174
:101F600070477047002001E001C1121F002AFBD119
:101F7000704700002DE9FF4F8BB005469A460F468B
:101F80000026C4E0252872D100246D1C664AA146B3
:101F900001212B78203B01FA03F0104202D00443C8
:101FA0006D1CF6E728782E2818D115F8010F44F09B
:101FB00004042A280BD157F8049B6D1C0EE009EB92
:101FC000890002EB400001EB00096D1C01E06FF09D
:101FD0002F022978A1F130000928F0D92878692842
:101FE00006D00DDC00286FD0632811D06428CAD138
:101FF00001CF4FF00A0B00283ADA40422D213AE097
:1020000073280FD07528BED101CF4FF00A0B3AE0EC
:1020100001CF8DF8280000208DF829000DF1280847
:10202000012003E057F8048B4FF0FF3061074FF0B9
:1020300000040AD500E0641C4C450EDA8442FADB49
:1020400018F804100029F6D107E000E0641C84426F
:10205000FCDB18F804100029F8D1264404E018F835
:10206000010B52460D999047641EF8D24EE056E09F
:10207000210504D52B218DF80810012104E0E1078A
:1020800001D02021F7E700210DF12C08019108E093
:102090005946FEF782F8A8F1010201F1300190469D
:1020A00011700028F4D103A8A0EB080000F1200B68
:1020B000600701D44FF001090020D94501DDA9EBEB
:1020C0000B008146002407E025E002A8005D52468F
:1020D0000D999047761C641C01988442F5DB04E05E
:1020E000302052460D999047761CB9F10000A9F1B5
:1020F0000109F5DC05E018F8010B52460D999047EF
:10210000761CBBF10000ABF1010BF4DC6D1C2878F0
:1021100000287FF437AF30460FB0BDE8F08F52464D
:102120000D999047761CF1E7092801002DE9F0414F
:102130000B46016815460A78303A092A08D84C78C7
:102140003A2C05D1891C016012B10B20BDE8F08149
:10215000664804681C600CB90C20F7E7207848B189
:10216000607800F0F7FAC10704D10DB1400711D42F
:102170000020EBE74FF0000884F80080404684F828
:10218000018000F0D5FAC10701D00320DEE71DB1C0
:10219000400701D50A20D9E700263146204600F045
:1021A000ABF801280CD104F5F770017991B1017AEF
:1021B000D0F8090041EA00263146204600F09CF89C
:1021C000032801D10120C1E720B9B4F83B00B0F5E4
:1021D000007F01D00D20B9E7B4F8460028B994F883
:1021E0005400D4F8551040EA0120A06194F8401042
:1021F000E170E38F9A194143226294F83D00A07088
:10220000B4F841002081B4F8430028B994F8500094
:10221000D4F8515040EA0520C01A2389401AA57805
:10222000A0EB1310B0FBF5F0801C012540F6F7770A
:10223000E061B84200D302254FF6F777B84201D3E8
:10224000032501E0032D06D194F85C00D4F85D70FD
:1022500040EA072000E05018606201EB13101044C0
:10226000A0624FF0FF302061474684F80480032DC0
:1022700031D1A772B4F860000123821962616078DD
:1022800004F1300100F058FA28BBB4F82E02A0F592
:102290002A4155391FD194F83000D4F8312014491F
:1022A00040EA0220884216D194F81402D4F815228C
:1022B000104940EA022088420DD194F81C02D4F85B
:1022C0001D1240EA0120E06094F81802D4F81912B7
:1022D00040EA01202061054A2570121FE76211883B
:1022E0003846491C1180E18030E70000480000209A
:1022F000525261417272416110B504460A464078FB
:10230000012304F1300100F017FA08B1032010BDD9
:10231000B4F82E02A0F52A41553901D0022010BD93
:1023200003220A4904F1660000F07AFD50B103224D
:10233000064904F1820000F073FD28B994F85800B2
:10234000000601D4002010BD012010BDE4300008BB
:10235000C269891E921E8A4201D800207047826A93
:10236000807801FB00207047002102E04008491CF2
:10237000C9B20128FAD1084670472DE9F041C76972
:1023800006465FEA010805D1F5680DB1BD420DD3DF
:1023900001250BE04146304600F05AFC022802D2EB
:1023A0000120BDE8F081B842FBD345462C46641CB1
:1023B000BC4202D30224022D0AD32146304600F04B
:1023C00047FC38B1411CECD00128EAD0AC42EED138
:1023D0000020E6E76FF070422146304600F072FDC3
:1023E0004FF0FF3540B9B8F1000F07D02246414603
:1023F000304600F067FD08B12846D2E7F460306946
:10240000411C03D0401E30610120B0722046C8E755
:102410002DE9F041846988460B222021204600F0F6
:1024200015FD0021D8F800C00A460B46082600BF5B
:102430001CF803005B1C202848D32F2846D05C28BA
:1024400044D02E2801D0B24208DB082E47D12E28D6
:1024500045D108220B268806010EE9E7802801D322
:1024600041F00301A0F181051E2D02D95F3D1C2D15
:1024700011D81CF803505B1CA5F140073F2F02D375
:10248000403F7D2F2BD2771EBA4228DAA054501C31
:102490002554921CCCE71FA500E06D1C2F780FB1CE
:1024A0008742FAD12D78D5B9A0F14105192D02D86E
:1024B00041F0020107E0A0F16105192D03D8203891
:1024C00041F00101C0B2A054521CB1E70CEB03056E
:1024D0000423C8F80050202800D3002312B9062096
:1024E000BDE8F0812078E52801D105202070082E74
:1024F00001D18806010E01F00300012801D143F04B
:102500001003C1F38100012801D143F00803E372F5
:102510000020E5E720222A2B2C5B3D5D7C7F00001C
:102520002DE9F0410446C0880E46401C07043F0CCC
:102530001DD02069D8B139075CD1401C2061E16809
:10254000206819B90089B84254D810E08278521E28
:1025500012EA171F4ED100F07BFB0546012812D965
:10256000681C32D02068C169A9423DD816B9042040
:10257000BDE8F081E168FFF700FF050001D1072009
:10258000F6E7012D01D10220F2E7681C1DD00021E1
:10259000206800F062FCC0B920684FF4007230304F
:1025A000002100F053FC29462068FFF7D1FE216886
:1025B00000264FF00108C8620FE000BF80F80480D9
:1025C0000021206800F049FC08B10120D0E7206814
:1025D000761CC16AF6B2491CC16220688178B1429A
:1025E000ECD8C16A891BC162E56029462068FFF703
:1025F000AFFE2061E78007F00F013022206802EB78
:102600004111084460610020B2E710B5044604207F
:1026100014E0206800F021FCA8B96269117809B9BA
:10262000042010E0E52904D02E2902D0D17A090730
:102630000BD500212046FFF773FF20B9216900293F
:10264000E7D1002801D00021216110BD70B50546F9
:10265000002100F02EF80EE02969286800F0FDFB4B
:10266000040024D168690078E52807D030B1012141
:102670002846FFF755FF0400EED018E029692868C6
:1026800000F0EBFB040012D16E69202200213046DD
:1026900000F0DCFB0B223046A96900F0CDFBA869F5
:1026A000C07A00F0180030732968012008712046B4
:1026B00070BD70B50D46C18081680446012920D0E7
:1026C0002068C2698A421CD951B90278032A01D113
:1026D000416A29B9E1600189A94212D9406A1AE028
:1026E0008078060111E0206800F0B2FA0146401C33
:1026F00001D1012070BD022903D32068C06988423E
:1027000001D8022070BDA81B85B2B542EBD2E160B2
:102710002068FFF71DFE00EB1510206105F00F018A
:102720003022206802EB411108446061002070BD36
:102730000020704700207047104610B540024FF44B
:102740000072012B02D1FEF75FFD01E0FEF756FE9D
:10275000002010BD00207047104610B540024FF415
:102760000072012B02D1FEF7A7FF01E0FFF7FEF890
:10277000002010BD10B5044600F0B4F9002801D1C6
:102780000021216010BD000008B10B207047054BEF
:102790000022186800B1027001B10A7000201960AF
:1027A00070470000480000202DE9F7478BB04FF03C
:1027B0000008064602F01F05C0F8008005F01E0262
:1027C00004A90CA8FFF7B2FC00281BD101A80A90AD
:1027D00004A80C9900F0D8F915F01C0F5CD04FF04C
:1027E000010960B104280DD104A8FFF72FFF0028CC
:1027F00008D145F00805099C28075CD538E0680732
:1028000003D508200EB0BDE8F087099C002C50D0FD
:10281000E07A10F0110F4CD128074CD5A08A678BB5
:1028200084F8148084F8158084F81A8084F81B805A
:1028300084F81C8084F81D8084F81E8084F81F8032
:10284000049960F31F4781F804900498D0F82CA0F5
:1028500047B13946049800F0A9FB0028D2D104986A
:102860007F1EC7605146049800F0F7FA0028C9D1CE
:1028700084F80B8000F045FAA0734FEA1021E17351
:102880004FEA104121744FEA10606074049945F0DA
:10289000200581F804900EE00028B3D1099C14B102
:1028A000E07AC10601D50420ACE7A90703D5C0072B
:1028B00001D00720A6E70498C06AF0610998306249
:1028C000B571A18A608B61F31F403061207FD4F81D
:1028D0001D1040EA0120C6E90280FF21F171C6F80F
:1028E0001880049830600498C088B080002089E780
:1028F00013B584B004460146002205A8FFF716FC74
:1029000000281AD101A8A0612046059900F03CF9E1
:1029100080B9606938B1C17AC9060DD5818A408B0A
:1029200061F31F40A06020680021C088A08020467D
:10293000FFF7BFFE042800D1052006B010BD2DE929
:10294000F84F4FF0000B8846C3F800B0044681886A
:1029500016469946006800F0B5FB002803D1A0791F
:10296000010602D50220BDE8F88FC00701D107207B
:10297000F9E7D4E9022104F124000090881A864284
:1029800000D9064681E0A168C80566D12068E279D1
:1029900083789A420CD309B9206902E0616900F09A
:1029A00057F9012809D9411C4DD0606184F807B05E
:1029B00061692068FFF7CCFC20B9A07940F0800065
:1029C000A071CFE7E179750A01EB000721D02068FB
:1029D0004B198278934200D9551AEBB240789A4647
:1029E0003A464146FFF7A8FE68BBA07940060AD5E3
:1029F000A069C01BA84206D208EB40204FF4007229
:102A0000009900F019FAE0794FEA45255044E07149
:102A100031E0A07940060BD5206801234078A269F7
:102A20000099FFF799FE70B9A07920F04000A071DD
:102A3000A069B8420DD02068012340783A46009939
:102A4000FFF77AFE28B1A07940F08000A071012044
:102A500089E7A761E079401CE071A068C0F3080035
:102A6000C0F50075B54200D93546011924312A4612
:102A7000404600F0E1F9A068A8442844A060D9F8D5
:102A80000000761B2844C9F80000002E7FF47BAFBD
:102A9000002068E7FEB50D4604468188006800F016
:102AA00011FB002806D1C4F818D025B90021204612
:102AB000FFF7FFFDFEBD2046FFF7A7FD0026042817
:102AC00001D1266101E00028F4D12946204600F01A
:102AD0001AF900212046FFF723FD0428EAD100203F
:102AE0002661FEBD70B504468188006800F0EAFAF0
:102AF00000280ED1A1798A060BD548060ED520688C
:102B00000123407804F12401A269FFF725FE08B1F2
:102B1000012070BDA07920F04000A071E16920681B
:102B200000F09BF90028F4D1256AE87A40F02000F3
:102B3000E872E0682877E068000A6877E068000CCF
:102B4000A877E068000EE8772069A8762069000A77
:102B5000E8762069000C28752069000E687500F081
:102B6000D0F8A875010AE975010C2976000E68767F
:102B7000A07920F02000A071216801200871206850
:102B8000BDE8704000F042BA73B501990446087878
:102B90002F2801D05C2801D1491C01910025A56096
:102BA00001980078202805D200212046FFF781FDFA
:102BB00065617CBD01A92046FFF72AFC0028F8D1F9
:102BC00000212046FFF775FDC8B92169206800F093
:102BD00044F9050012D16069017809B904250DE0B6
:102BE000C17A090704D40B22A16900F019F928B1B0
:102BF00000212046FFF794FC0500E6D02846A16995
:102C0000C97A01F0040128B10428D2D10029D0D119
:102C100005207CBD0029FCD16069C17AC906F7D5C1
:102C2000818A408B61F31F40A060C3E770B5074DF8
:102C30000446C1B22846FFF777F940212846FFF73E
:102C40000DF90028F9D0204670BD00000038014081
:102C50002DE9F04105460C46022902D3E869A0425D
:102C600002D80120BDE8F08128782E6A012818D00A
:102C7000022838D0032841D106EBD411284600F0B1
:102C8000ECF878BBA1B240F2FF1000EA81002844C2
:102C900090F83010D0F8310041EA002020F0704068
:102CA000E0E704EB540706EB5721284600F0D5F87F
:102CB000C0B9C7F30800284490F830807F1C06EBA9
:102CC0005721284600F0C9F860B9C7F30800284426
:102CD00090F8301048EA01210809E207C2D1C1F397
:102CE0000B00BFE70AE006EB1421284600F0B5F818
:102CF00020B9E0B205EB4000008EB3E74FF0FF30A3
:102D0000B0E70020704770B5036901F10902C3B351
:102D1000436900241D7B185D20280FD0052800D1B1
:102D2000E5202E0705D5A0F14106192E01D8203047
:102D3000C0B2641C02F8010B082CECDB187A2028C6
:102D400013D02E2002F8010B0824185D20280CD087
:102D5000EE0605D5A0F14106192E01D82030C0B2EB
:102D6000641C02F8010B0B2CEFDBD87A0872187F79
:102D7000D3F81D4040EA04200860188B8880D88A68
:102D8000C8800020107070BD10B5FFF73DF8FDF74A
:102D900079FCFEF763FFFDF7A5FF114C2070C0B270
:102DA0002A2817D10F48FDF767FE2070C0B22A28E5
:102DB00010D10C48B0F84C000004FEF745FC207020
:102DC000C0B22A2806D10120FEF754FC207006A0CC
:102DD000FFF7B0F8FDF7A2FC07A0FFF7ABF8FEE79E
:102DE00028000020B40000200D0A54455354204F01
:102DF0004B210D0A000000000A4C65742773206CFB
:102E00006F6F7020666F7220696E66696E69747983
:102E10002C20616E64206265796F6E64210A000067
:102E200010B50023521E05D310F8013B11F8014BD9
:102E30001B1BF7D0184610BD10B504E011F8013B7C
:102E4000441C03702046521EF8D210BDC9B201E0E6
:102E500000F8011B521EFBD270472DE9F041C56AF4
:102E600004460F468D422BD0217904F13008D9B1A8
:102E7000607801232A464146FFF76EFCE0B9002046
:102E80002071A169206A0844A8420DD9E67809E0BA
:102E9000A0690123054460782A464146FFF75CFC9F
:102EA000761EF6B2012EF3D857B1607801233A4668
:102EB0004146FFF741FC10B10120BDE8F081E76217
:102EC0000020FAE72DE9F05F04460D461646022978
:102ED00002D3E069A84202D80220BDE8F09F207822
:102EE000276A06F0FF094FF0010B01281DD0B1B28F
:102EF0008A464FEA1128022846D0032852D107EB10
:102F0000D5112046FFF7A9FF00284CD1ABB240F203
:102F1000FF1101EA8301214401F8309F81F801800B
:102F2000320C8A70320ECA703DE005EB550807EB93
:102F300058212046FFF791FF28BBC8F30800204422
:102F400030304946EA0702D0017869F31F11017059
:102F500008F1010884F804B007EB58212046FFF778
:102F60007CFF80B9C8F3080121443031EA0702D060
:102F7000C6F3071206E00A78330AC3F3030302F02C
:102F8000F0021A430A700EE007EB15212046FFF706
:102F900064FF40B9E9B204EB410101F830AF81F8B8
:102FA000018000E0022084F804B096E72DE9F041AA
:102FB00005460E4602290ED3E869B0420BD9002718
:102FC0004FF001081CE031462846FFF741FE04009F
:102FD00019D0012C01D1022715E0601C01D1012775
:102FE00011E0002231462846FFF76CFF07000AD1A6
:102FF0002869411C03D0401C286185F80A802646B8
:10300000E869B042DFD83846BDE8F0812DE9F041EB
:1030100004460021FFF721FF050050D12078032846
:1030200046D1A07AF0B3002604F130004FF40072CC
:1030300031460746E662FFF709FF552084F82E0265
:10304000AA2084F82F02522084F8300084F831003E
:10305000612184F83210412284F83320722084F8F0
:10306000140284F8150284F8162284F817122069D5
:1030700084F81802010A84F81912010C84F81A1253
:10308000000E84F81B02E06884F81C02010A84F830
:103090001D12010C000E84F81E1284F81F026078C5
:1030A000012300E004E039466269FFF755FBA67290
:1030B000002260781146FFF73DFB00B1012528464C
:1030C000BDE8F08110B520B1027812B1C2888A4201
:1030D00001D0092010BD4078FFF73CFBC007F9D0B4
:1030E000032010BD464154000831000800000020B4
:1030F00050000000541F0008583100085000002004
:1031000008090000641F00082A00000000000000F9
:1031100000000000000000000000000000000000AF
:10312000000000000000000000000000000000009F
:103130002A00000000000000020406080000000051
:10314000010203040102030406070809000000004D
:08315000000000000000000077
:0400000508000131BD
:00000001FF
